:08000000803102288731F82F3E
:100F3800080008000800080000308731C22773083D
:100F4800F701F7077208F601F6070800F1007108C3
:100F5800F000F00DF00D21001D08700683397006B1
:100F68009D00080021009D1C9D149D18B92F1C0888
:100F7800F101F1071B08F001F0070800F5007508FA
:100F88008731AA2787318731B6277108F301F3071C
:100F98007008F201F207080087319F2787318731EF
:100FA800E327873187319E2787318731A02787310B
:100FB80087319C27873187319D278731D92F210099
:100FC8000C148C1423000C148C14833021009D0500
:100FD8009D109E171E088F3960389E00FC309E05B4
:100FE8000F309F051D140800FC01FD01A001A1019F
:080FF8007E1020008731D02F8C
:020000040001F9
:06000E00BCFFFBFF92FEA7
:00000001FF
