:08000000803102288731F42F42
:100F1000080008000800640080010131890B8C2F53
:100F2000003400308731BE277308F701F7077208D5
:100F3000F601F607080000302000D3000C30D20084
:100F4000D4010030BC000030BD000800F100710881
:100F5000F000F00DF00D21001D08700683397006B9
:100F60009D00080021009D1C9D149D18B52F1C0894
:100F7000F101F1071B08F001F0070800F500750802
:100F80008731A62787318731B2277108F301F3072C
:100F90007008F201F207080087318A27873187310C
:100FA000DF27873187319B27873187319127873129
:100FB000873188278731873189278731D52F2100CD
:100FC0000C148C1423000C148C14833021009D0508
:100FD0009D109E171E088F3960389E00FC309E05BC
:100FE0000F309F051D140800FC01203084000030E4
:100FF0008500413087318B277E1020008731CC2F30
:101000007E3430346D34793433345B345F3470344F
:101010007F347B3477341F344E343D344F3447347F
:101020003F3406345B344F3466346D347D340734DA
:101030007F346F3477347C3439345E3479347134AE
:020000040001F9
:06000E00BCFFFBFF92FEA7
:00000001FF
