:08000000803102288731F52F41
:100D3C000800080008000800640080010131890BDC
:100D4C00A32E003400308631CA267308F701F7074A
:100D5C007208F601F6070800F1007108F000F00DBA
:100D6C00F00D21001D087006833970069D000800E7
:100D7C0021009D1C9D149D18C12E1C08F101F1072A
:100D8C001B08F001F0070800F50075088631B22643
:100D9C0086318631BE267108F301F3077008F20123
:100DAC00F2070800F300F201731CE02E7008F1004A
:100DBC007108F2070310F00D0310F30CF308031D78
:100DCC00DA2E720808008631A12686318631FC267F
:100DDC0086318731112786318631A82686318631B6
:100DEC009E26863186319F268631F22E21000C14E8
:100DFC008C1423000C148C14833021009D059D1041
:100E0C009E171E088F3960389E00FC309E050F30EF
:100E1C009F051D14080020000C08F600F701760849
:100E2C00B1007708B200B3010C08F600F7017608A0
:100E3C00B4007708B500B601B60A0C08F600F70145
:100E4C007608B7007708B8000230F6007608B900CB
:100E5C000C08F600F7017608BA007708BB000330DF
:100E6C00F6007608BC000C08F600F7017608BD0009
:100E7C007708BE000430F6007608BF000C08F600B8
:100E8C00F7017608C0007708C1000530F600760837
:100E9C00C2000C08F600F7017608C3007708C400FE
:100EAC00C5010E08F600F7017608C6007708C700E2
:100EBC00C801C80A0E08F600F7017608C9007708C1
:100ECC00CA000230F6007608CB000E08F600F701D7
:100EDC007608CC007708CD000330F6007608CE00FB
:100EEC000E08F600F7017608CF007708D000043022
:100EFC00F6007608D1000E08F600F7017608D2004D
:100F0C007708D3000530F6007608D400D5013730C9
:100F1C00F6007608D6003A30F6007608D700D801ED
:100F2C000230F6007608E100A030E2000630E30063
:100F3C000030E4000030E5000030E6000030E7004F
:100F4C003D30F6007608D900A001A1015530F6001D
:100F5C007608A200A301A4015530F6007608A5007E
:100F6C00A601A7015530F6007608A800A901AA0130
:100F7C005530F6007608AB00F901043079020318FD
:100F8C0008000330F6007608F00079088631D82680
:100F9C008731023E203E86008701010886008701CA
:100FAC000108F7007708F400F5010330F800780821
:100FBC00F00079088631D8268731023E203E860023
:100FCC00870101080D3E86008701413F8A00403FA2
:100FDC000A0087310130F6007608F907C32F20305C
:100FEC0084000030850048308631A2267E10200017
:100FFC008631E92E7E3430346D34793433345B34BD
:10100C005F3470347F347B3477341F344E343D344A
:10101C004F3447343F3406345B344F3466346D34CC
:10102C007D3407347F346F3477347C3439345E3418
:04103C00793471345E
:020000040001F9
:06000E00BCFFFBFF92FEA7
:00000001FF
